S01C0000446F6F725F53656375726974795F53797374656D2E73726563D9
S11300000C942A000C943F000C943F000C943F0085
S11300100C943F000C943F000C943F000C943F0060
S11300200C943F000C943F000C943F000C943F0050
S11300300C943F000C943F000C943F000C943F0040
S11300400C943F000C943F000C943F000C943F0030
S11300500C943F0011241FBECFE5D8E0DEBFCDBF16
S113006010E0A0E6B0E0EEE0FAE002C005900D92E8
S1130070A83AB107D9F70E9436010C9405050C94EF
S11300800000FF920F931F93CF93DF93CDB7DEB79A
S113009028970FB6F894DEBF0FBECDBF81E08983E9
S11300A082E08A8383E08B8384E08C831D821E82BA
S11300B01F82188662E082E00E94650367E082E0A6
S11300C00E94650363E083E00E94650310E081E021
S11300D00E946C0260E080E00E94330388E790E0B5
S11300E00E94BF0261E080E00E94330387E890E051
S11300F00E94BF0261E082E00E94330300E029C055
S1130100FF24F394F00E61E08F2D0E9433030E94CC
S1130110B8018F3FF1F0E5E0F0E0EC0FFD1FE00FD8
S1130120F11D8083682F70E080E090E00E94D2028D
S11301302FEF89E698E1215080409040E1F700C01C
S1130140000021E04F2D60E670E080E00E943B0358
S11301500F2D0430A8F260E081E00E94A5048823FA
S1130160D1F380E090E001E011C0E1E0F0E0EC0FB9
S1130170FD1FE80FF91F3081E5E0F0E0EC0FFD1FF3
S1130180E80FF91F2081321300E0019684309105B5
S113019064F381E00E946C0260E080E00E9433031B
S11301A0013071F48AE890E00E94BF022FEF87EAE1
S11301B091E6215080409040E1F700C000004AC021
S11301C0111105C062E082E00E9474030DC0113079
S11301D029F467E082E00E94740306C0123021F41F
S11301E063E083E00E9474031F5F82E990E00E9451
S11301F0BF022FEF87EA91E6215080409040E1F75B
S113020000C00000133008F462CF81E00E946C0249
S113021060E080E00E94330381EA90E00E94BF0224
S113022062E082E00E94830367E082E00E9483032D
S113023063E083E00E94830363E080E00E94710432
S11302402FEF83EC99E0215080409040E1F700C00B
S11302500000E6CF28960FB6F894DEBF0FBECDBFE0
S1130260DF91CF911F910F91FF90089541E063E0DA
S113027080E00E94910341E062E082E00E949103E9
S113028041E067E082E00E94910341E063E083E0A3
S11302900E94910340E060E081E00E94910340E00D
S11302A060E081E00E94010460EF80E00E94D304DA
S11302B06EE081E00E94D3040E9486020E946701DE
S11302C062E081E00E9465030E9441000895FF926C
S11302D00F931F93CF93DF93CDB7DEB728970FB655
S11302E0F894DEBF0FBECDBF24E0298395E09A8346
S11302F086E08B8337E03C8333E03D832E839F830A
S1130300888700E010E024C0E5E0F0E0EC0FFD1F7A
S1130310E10FF11DF08040E06F2D82E00E94910317
S113032041E06F2D82E00E940104E1E0F0E0EC0F77
S1130330FD1FE00FF11DF08041E06F2D81E00E9470
S1130340910341E06F2D81E00E9401040F5F1F5F64
S1130350143010F40430C0F228960FB6F894DEBFBF
S11303600FBECDBFDF91CF911F910F91FF900895E4
S1130370AF92BF92CF92DF92EF92FF920F931F93AF
S1130380CF93DF93CDB7DEB728970FB6F894DEBFCF
S11303900FBECDBF24E0298395E09A8386E08B834A
S11303A037E03C8333E03D832E839F838887B12CE1
S11303B03BC0CB2CD12CE1E0F0E0EC0FFD1FEC0DA9
S11303C0FD1DA08040E06A2D81E00E94010410E040
S11303D023C0E12EF12CE5E0F0E0EC0FFD1FEE0D63
S11303E0FF1D0081602F82E00E94A504811113C0CB
S11303F0C701880F991F880F991F88599F4FFC01C7
S1130400EC0DFD1D1081602F82E00E94A50488235D
S1130410D1F3812F0DC01F5F1430D8F241E06A2D53
S113042081E00E940104B39483E08B1510F68FEFF2
S113043028960FB6F894DEBF0FBECDBFDF91CF91E3
S11304401F910F91FF90EF90DF90CF90BF90AF90EE
S113045008950F931F93CF93DF9300D000D0CDB7AF
S1130460DEB7082F84E0898385E08A8386E08B8366
S113047087E08C8310E014C0402F50E0012E02C0AE
S1130480559547950A94E2F74170E1E0F0E0EC0FEE
S1130490FD1FE10FF11D608180E00E9401041F5FD8
S11304A0143050F30F900F900F900F90DF91CF9175
S11304B01F910F91089541E063E081E00E940104DF
S11304C08FE39FE10197F1F700C0000040E063E093
S11304D081E00E9401040895CF93C82F40E061E0B9
S11304E081E00E94010440E062E081E00E94010496
S11304F08C2F82958F700E9429020E945B028C2FA0
S11305000E9429020E945B02CF9108952FEF83EF8E
S113051091E0215080409040E1F700C0000082E06B
S11305200E9429020E945B0282E00E9429020E942A
S11305305B0288E00E9429020E945B028CE00E9418
S11305406C0281E00E946C020895CF93C82F41E0B1
S113055061E081E00E94010440E062E081E00E94E9
S113056001048C2F82958F700E9429020E945B02E5
S11305708C2F0E9429020E945B02CF9108950F9351
S11305801F93CF938C01C0E003C00E94A502CF5FEC
S1130590F801EC0FF11D80818111F7CFCF911F91EC
S11305A00F9108951F93CF93DF93CDB7DEB72A97AA
S11305B00FB6F894DEBF0FBECDBF6115710581057E
S11305C09105C1F480E3898311E01AC02AE030E088
S11305D040E050E00E94E304E1E0F0E0EC0FFD1F96
S11305E0E10FF11D605D6083622F732F842F952FBF
S11305F01F5F01C010E0611571058105910531F798
S113060080E018C0282F30E0A1E0B0E0AC0FBD1F9F
S1130610A20FB31F9C91E12FF0E0E21BF30B319783
S113062021E030E02C0F3D1FE20FF31F20812C93BB
S113063090838F5F912F9695891720F3E1E0F0E086
S1130640EC0FFD1FE10FF11D1082CE0101960E94F7
S1130650BF022A960FB6F894DEBF0FBECDBFDF915E
S1130660CF911F91089590E4699F800D11248068B3
S11306700E946C020895EF92FF920F931F93CF9301
S1130680DF93D82F8B01F42EE22E880F880F880F6A
S11306908F7780640E946C02C0E007C0F801EC0F01
S11306A0F11D80810E94A502CF5FC830B8F36E2D82
S11306B08F2D0E9433038D2F0E94A502DF91CF91CD
S11306C01F910F91FF90EF900895CF93DF93C82F60
S11306D0D62F41E00E94910341E06D2F8C2F0E94A0
S11306E00104DF91CF910895CF93DF93C82FD62FC4
S11306F041E00E94910340E06D2F8C2F0E94010481
S1130700DF91CF910895CF93DF93C82FD62F41E087
S11307100E9491036D2F8C2F0E947104DF91CF9161
S113072008954130A1F5813089F028F08230C9F074
S1130730833011F108952AB381E090E002C0880F5C
S1130740991F6A95E2F7822B8ABB089527B381E04B
S113075090E002C0880F991F6A95E2F7822B87BB4D
S1130760089524B381E090E002C0880F991F6A9530
S1130770E2F7822B84BB089521B381E090E002C0AC
S1130780880F991F6A95E2F7822B81BB0895411166
S113079037C0813091F028F08230D9F0833029F1CC
S11307A008952AB381E090E002C0880F991F6A95EA
S11307B0E2F7809582238ABB089527B381E090E015
S11307C002C0880F991F6A95E2F78095822387BB40
S11307D0089524B381E090E002C0880F991F6A95C0
S11307E0E2F78095822384BB089521B381E090E0F1
S11307F002C0880F991F6A95E2F78095822381BB16
S113080008954130A1F5813089F028F08230C9F093
S1130810833011F108952BB381E090E002C0880F7A
S1130820991F6A95E2F7822B8BBB089528B381E068
S113083090E002C0880F991F6A95E2F7822B88BB6B
S1130840089525B381E090E002C0880F991F6A954E
S1130850E2F7822B85BB089522B381E090E002C0C9
S1130860880F991F6A95E2F7822B82BB0895411184
S113087037C0813091F028F08230D9F0833029F1EB
S113088008952BB381E090E002C0880F991F6A9508
S1130890E2F7809582238BBB089528B381E090E032
S11308A002C0880F991F6A95E2F78095822388BB5E
S11308B0089525B381E090E002C0880F991F6A95DE
S11308C0E2F78095822385BB089522B381E090E00E
S11308D002C0880F991F6A95E2F78095822382BB34
S11308E00895813089F028F08230C9F0833011F105
S11308F008952BB381E090E002C0880F991F6A9598
S1130900E2F782278BBB089528B381E090E002C010
S1130910880F991F6A95E2F7822788BB089525B34B
S113092081E090E002C0880F991F6A95E2F7822760
S113093085BB089522B381E090E002C0880F991F1F
S11309406A95E2F7822782BB0895813079F028F016
S11309508230A9F08330E1F024C089B390E002C072
S1130960959587956A95E2F78170089586B390E02E
S113097002C0959587956A95E2F78170089583B3CF
S113098090E002C0959587956A95E2F78170089585
S113099080B390E002C0959587956A95E2F78170DF
S11309A0089580E00895813041F028F0823039F0D4
S11309B0833039F008956ABB089567BB089564BB1A
S11309C0089561BB0895A1E21A2EAA1BBB1BFD0169
S11309D00DC0AA1FBB1FEE1FFF1FA217B307E4071A
S11309E0F50720F0A21BB30BE40BF50B661F771F72
S11309F0881F991F1A9469F7609570958095909552
S1110A009B01AC01BD01CF010895F894FFCF16
S1130A0E0000000A040A00000102032B0405062D4F
S1130A1E0708092A43003D2F456E74657220506104
S1130A2E7373776F7264003A200057656C636F6D51
S1130A3E650057726F6E672050617373776F7264BF
S10B0A4E00416C657274210083
S9030000FC
